S01500005254432D426C7565746F6F74682E7372656343
S113000069C083C082C081C080C07FC07EC07DC003
S11300107CC07BC07AC0D7C1AAC177C076C075C086
S113002074C074C072C08DC060C15FC15EC15DC167
S11300305CC15BC15AC185C058C157C156C155C1C5
S113004054C153C152C198C050C14FC14EC14DC1DA
S11300504CC14BC14AC1AFC048C147C146C145C1EB
S113006044C143C142C188C040C13FC13EC13DC13A
S11300703CC13BC13AC1ACC038C137C136C135C13E
S113008034C133C132C1B8C030C12FC12EC12DC15A
S11300902CC12BC12AC1E6C028C127C126C125C154
S11300A024C123C122C115C120C11FC11EC11DC14C
S11300B01CC11BC11AC1D9C018C117C116C115C1B1
S11300C014C113C112C1EDC06364696E6F7073759E
S11300D078585B0011241FBECFE5D4E0DEBFCDBF4E
S11300E010E0A0E6B0E0E4E8F2E102C005900D9271
S11300F0AC3CB107D9F720E0ACECB0E001C01D92F4
S1130100A13EB207E1F722D2BBC87ACF1F920F9269
S11301100FB60F9211242F933F938F939F93AF9316
S1130120BF93EF93FF9381B1E82FE87F8E2F90E088
S1130130FC013897E135F10508F0D7C0ED5EFF4FBB
S113014009948091CD00867029F48091D700880F9E
S113015083B90AC08091CD008670823029F48091E1
S1130160D700880F816083B985E886BF8091CD0070
S1130170877C8093CD00B9C08091CC009091D2004F
S113018098130AC084E986BF8091CD008E7F809346
S1130190CD001092CC00A9C0E091D800F091D90014
S11301A091E0980F9093CC00E80FF11D808183B902
S11301B085E886BF9AC08091CD00877C8093CD006E
S11301C08091CD0088618093CD0085EA86BF8DC083
S11301D08091CC00E091D800F091D900E80FF11D96
S11301E0808183B984E986BF8091CD00867C809329
S11301F0CD001092CC0079C08091CD00877C809393
S1130200CD008091CD00867031F48091CD0088605E
S11302108093CD000AC08091CD008670823029F48D
S11302208091CD0080618093CD009091D200809127
S1130230CC00981709F459C08091CD00867029F438
S11302408091D700880F83B90AC08091CD00867051
S1130250823029F48091D700880F816083B985E8C2
S113026086BF43C085EC86BF40C0E091D800F091C2
S1130270D9009091CC0081E0890F8093CC0023B108
S1130280E90FF11D20832091D20030E090E0019627
S11302902817390719F485E886BF27C085EC86BF7F
S11302A024C0E091D800F091D9008091CC0091E075
S11302B0980F9093CC0093B1E80FF11D908384E9DB
S11302C086BF8091CD00867C8093CD001092CC00B7
S11302D00CC08091CD00877C8093CD008091CD00AF
S11302E080628093CD0085EA86BFFF91EF91BF9134
S11302F0AF919F918F913F912F910F900FBE0F90CF
S11303001F90189578948093D7007093D9006093C8
S1130310D8004093D20081E08093CD0085EA86BF67
S1130320089512B878948093D7007093D90060939D
S1130330D8004093D20083E08093CD0085EA86BF45
S113034008959B01AC0160E072E18AE790E08DD1F1
S1130350DA01C9014097A109B109689412F8B69568
S1130360A795979587951694D1F780B908951F920C
S11303700F920FB60F9211248F939F93EF93FF93D5
S11303808091CF008F5F8093CF009091D100891727
S113039048F4E091DD00F091DE00E80FF11D80816A
S11303A08CB908C055988091DC008E7F8093DC0066
S11303B01092CF00FF91EF919F918F910F900FBEFC
S11303C00F901F9018951F920F920FB60F92112441
S11303D08F939F93EF93FF938091CE009CB1E09114
S11303E0DF00F091E000E80FF11D90838F5F8093B0
S11303F0CE009091D000891740F057988091DC008E
S11304008D7F8093DC001092CE00FF91EF919F913D
S11304108F910F900FBE0F901F901895F8948068DD
S113042080BD9AB910BC8CE089B95998789410921F
S1130430DC0008959093DE008093DD006093D1008A
S1130440FC0180818CB9559A8091DC008160809395
S1130450DC0008959093E0008093DF006093D00067
S1130460579A8091DC0082608093DC000895CF93DA
S1130470DF93EC01FC011192BC01685F7F4F4DECEE
S11304809081949F812D112486958695869550E1BF
S1130490859F90011124880F382F330F330F830F5A
S11304A0981B922B9193E617F70751F78091CD0093
S11304B080FDFCCF60EA76E881E090E042DF48E02E
S11304C0BE0188E61FDFDF91CF9108950F931F933C
S11304D0CF93DF931F92CDB7DEB78C011982809141
S11304E0CD0080FDFCCF60EA76E881E090E029DF72
S11304F041E0BE016F5F7F4F88E604DF8091CD004D
S113050080FDFCCF47E0B8016F5F7F4F88E609DFCD
S11305108091CD0080FDFCCFF8011082A801495FD5
S11305205F4F9081292F22952F70220F322F330F86
S1130530330F230F9F70920F9193E417F50789F7F8
S11305400F90DF91CF911F910F910895CF93DF9377
S1130550CDB7DEB7AC970FB6F894DEBF0FBECDBFF4
S113056080E882BB879980C086E098E157DF8E01DE
S11305700F5F1F4F0F2EF0EB6F2EF0E07F2EF02D4C
S11305805E018BE2A80EB11C6E0199E2C90ED11C6A
S11305907E0187E2E80EF11C0F2EFEE98F2EF0E0BB
S11305A09F2EF02D8091DC0080FDFCCF64E280E67C
S11305B090E040DF61E0C8014DDF8091DC0081FD07
S11305C0FCCF8981813369F568E184E890E032DF0A
S11305D068E0C8013FDF8091DC0081FDFCCF1A8612
S11305E0BF92AF92DF92CF92FF92EF929F928F923F
S11305F01F930F937BD0CE014F9668DF8FA18AA300
S113060089A589A38BA588A3CE014F9630DF68E026
S113061087EA90E00FDF0FB6F894DEBF0FBECDBFC0
S1130620C1CF8233D1F4CE014F9650DF88A11F92FF
S11306308F9389A11F928F938AA11F928F937F9288
S11306406F921F930F9333D06CE0C801F3DE0FB6A3
S1130650F894DEBF0FBECDBFA5CF833309F0A2CF80
S113066067E083EC90E0E6DEFFCFA1E21A2EAA1B3E
S1130670BB1BFD010DC0AA1FBB1FEE1FFF1FA2174E
S1130680B307E407F50720F0A21BB30BE40BF50B4B
S1130690661F771F881F991F1A9469F760957095D4
S11306A0809590959B01AC01BD01CF010895AEE00A
S11306B0B0E0ECE5F3E0BBC50D891E8986E08C83D0
S11306C01A8309838FEF9FE79E838D83AE01475E74
S11306D05F4F6F89788DCE0101961ED0EF81F8852A
S11306E0E00FF11F10822E96E4E0BDC5AEE0B0E04D
S11306F0EBE7F3E09EC585E08C838B899C899A8324
S11307008983AE01495E5F4F6D897E89CE01019672
S113071062D32E96E2E0A9C5ABE0B0E0E1E9F3E0F4
S113072078C56C017B018A01FC01178216828381E2
S113073081FFBFC1CE0101963C01F6019381F7010F
S113074093FD859193FF81917F01882309F4ADC1C5
S1130750853239F493FD859193FF81917F01853230
S113076021F4B60190E09FD4E8CF912C212C312CB8
S1130770FFE1F315D8F08B3279F038F4803279F058
S11307808332A1F4232D20611DC08D3261F08033AA
S113079069F4232D216016C0832D8260382EE32D49
S11307A0E4603E2E2AC0F32DF8601DC037FC2DC036
S11307B020ED280F2A3040F08E32B9F436FC75C192
S11307C0232D2064322E19C036FE06C08AE0989E7E
S11307D0200D1124922E11C0EAE02E9E200D11242A
S11307E0222EF32DF0623F2E08C08C3621F4832D87
S11307F08068382E02C0883641F4F70193FD859154
S113080093FF81917F018111B3CF982F9F7D9554E0
S1130810933028F40C5F1F4F9FE399830DC08336F8
S113082031F0833771F0833509F055C020C0F801E9
S1130830808189830E5F1F4F88248394912C5301F8
S113084012C02801F2E04F0E511CF801A080B180C3
S113085036FE03C0692D70E002C06FEF7FEFC50163
S1130860D9D34C018201F32DFF773F2E15C0280107
S113087022E0420E511CF801A080B18036FE03C074
S1130880692D70E002C06FEF7FEFC501B8D34C0152
S1130890F32DF0683F2E820133FC19C0822D90E0C5
S11308A088169906A0F4B60180E290E0FCD32A945D
S11308B0F5CFF50137FC859137FE81915F01B601D3
S11308C090E0F1D321102A9421E0821A9108811436
S11308D0910479F7E1C0843611F0893639F5F801CD
S11308E037FE07C060817181828193810C5F1F4F45
S11308F008C060817181072E000C880B990B0E5F74
S11309001F4FF32DFF763F2E97FF09C090958095DA
S1130910709561957F4F8F4F9F4FF0683F2E2AE06F
S113092030E0A30115D4882E861844C0853731F4ED
S1130930232D2F7EB22E2AE030E025C0932D997FFF
S1130940B92E8F36C1F018F4883579F0AEC08037EF
S113095019F0883721F0A9C0E92FE061BE2EB4FE5A
S11309600DC0FB2DF460BF2E09C034FE0AC0292F30
S11309702660B22E06C028E030E005C020E130E059
S113098002C020E132E0F801B7FE07C06081718146
S1130990828193810C5F1F4F06C06081718180E06A
S11309A090E00E5F1F4FA301D3D3882E8618FB2D32
S11309B0FF773F2E36FE0DC0232D2E7FA22E8914E5
S11309C058F434FE0BC032FC09C0832D8E7EA82E51
S11309D005C0B82CA32C03C0B82C01C0B92CA4FEAC
S11309E00FC0FE01E80DF11D8081803321F49A2DA2
S11309F0997EA92E09C0A2FE06C0B394B39404C084
S1130A008A2D867809F0B394A3FC10C0A0FE06C01A
S1130A10B21480F4280C922C9B180DC0B21458F414
S1130A20B60180E290E03FD3B394F8CFB21418F447
S1130A302B1802C0982C212CA4FE0FC0B60180E311
S1130A4090E031D3A2FE16C0A1FC03C088E790E079
S1130A5002C088E590E0B6010CC08A2D867851F07A
S1130A60A1FE02C08BE201C080E2A7FC8DE2B601C8
S1130A7090E019D3891430F4B60180E390E013D3E5
S1130A809A94F8CF8A94F301E80DF11D8081B601A0
S1130A9090E009D38110F6CF222009F44ECEB6019E
S1130AA080E290E000D32A94F7CFF6018681978103
S1130AB002C08FEF9FEF2B96E2E1C7C320FD09C070
S1130AC0FC0123FD05C022FF02C0738362835183AE
S1130AD04083089544FD17C046FD17C0AB01BC0117
S1130AE0DA01FB01AA0FBB1FEE1FFF1F1094D1F701
S1130AF04A0F5B1F6E1F7F1FCB01BA01660F771F62
S1130B00881F991F09C033E001C034E0660F771FC6
S1130B10881F991F3150D1F7620F711D811D911DDE
S1130B2008950F931F93CF93DF938C01C8017DD257
S1130B30EC0197FD06C050D2892BC1F7B801CE0154
S1130B40EED2CE01DF91CF911F910F9108958F9234
S1130B509F92AF92BF92EF92FF920F931F93CF9306
S1130B60DF938C01D62F7A01B22E5FD29C013327FA
S1130B702B32310531F02D32310559F48B2D80683B
S1130B80B82ED15011F480E061C0C8014ED297FD57
S1130B90FACFCB2DCD7F2B2D2073F9F48033E9F4DC
S1130BA0AA24AA94AD0E09F43EC0C8013ED297FD12
S1130BB03AC09C012F7D33272835310541F4C264A6
S1130BC0D25089F1C80131D297FF07C02CC0B6FEBC
S1130BD002C0C26001C0C261DA2D812C912C540183
S1130BE020ED280F283078F0C4FF03C0B80197D255
S1130BF017C02A3040F0C6FFF9CF2F7D3FEE320FE9
S1130C003630A0F727504C2FC501B40163DF4B01E8
S1130C105C01C260D15051F0C80107D297FFE0CF08
S1130C20C1FD04C0B0CF812C912C5401C7FF08C072
S1130C30B094A09490948094811C911CA11CB11C2C
S1130C402C2FB501A401C70139DF81E0DF91CF91D9
S1130C501F910F91FF90EF90BF90AF909F908F9056
S1130C600895A0E2B0E0E6E3F6E0D6C25C01962E79
S1130C707A01F9018E010F5F1F4F680180E2D801EC
S1130C801D928A95E9F7D50113968C9080E090E047
S1130C90612C712C30E061E070E083FC259183FECF
S1130CA021918F01522E211103C080E090E090C069
S1130CB02E3511F4009751F1432F50E0481759078E
S1130CC03CF42D3559F12D3219F4772009F103C084
S1130CD0772009F468C0452D469546954695D6017A
S1130CE0A40FB11D452D47708B0102C0000F111FC9
S1130CF04A95E2F7A8015C91452B4C93651459F091
S1130D00561410F45394E7CF5A94E5CF31E004C05D
S1130D107724739401C0712C0196BFCF772019F00A
S1130D208E8180628E83311103C08824839417C01E
S1130D30F6019E012F5D3F4F8081809581932E1790
S1130D403F07D1F7F2CFE114F10429F0D7018C93D6
S1130D50F70131967F019A94812C9920E9F0C5011D
S1130D6064D197FD17C0FC01FF2723E0F595E795B3
S1130D702A95E1F7EC0DFD1D208130E0AC014770B0
S1130D80552702C0359527954A95E2F720FDDBCF1C
S1130D90B501C5D1811089CFE114F10411F0D70157
S1130DA01C92C80115C0422F469546954695D6011A
S1130DB0A40FB11D422F47708B0102C0000F111FF9
S1130DC04A95E2F7A8015C91452B4C93622EA4CF7F
S1130DD0A096EFE03DC2A0E0B0E0E0EFF6E01CC278
S1130DE06C01EB015A01FC0117821682512CF601A9
S1130DF0E380FE01E3FC8591E3FE8191182FEF016E
S1130E00882309F4E0C090E0E7D0892B19F0C601EB
S1130E1088DEEDCF153241F4FE01E3FC1591E3FECB
S1130E201191EF01153271F4C601FFD097FDC9C0CD
S1130E30412F50E09C01332724173507C1F2B60136
S1130E406ED1C1C01A3239F4E3FC1591E3FE11915D
S1130E50EF0101E001C000E0F12C20ED210F2A3068
S1130E6078F402606F2D70E080E090E040E232DEC2
S1130E70F62EFE01E3FC1591E3FE1191EF01EDCF97
S1130E8001FF03C0F11003C09EC0FF24FA9418367A
S1130E9019F01C3651F010C0FE01E3FC1591E3FE7D
S1130EA01191EF01183641F408600460FE01E3FC7F
S1130EB01591E3FE1191EF01112309F484C0612F10
S1130EC070E088EC90E090D0892B09F47CC000FDA0
S1130ED007C0F50180809180C50102965C0102C0C3
S1130EE0812C912C1E3649F4F6014681578160E02D
S1130EF070E0202FC401E2DD7ACF1336A1F401FDA6
S1130F0002C0FF24F394C60190D097FD5AC0811407
S1130F10910429F0F4018083C40101964C01FA94F0
S1130F20F110F1CF4AC01B3551F49E01A4016F2D7D
S1130F30C60197DEEC01892B09F03FC039C0C60118
S1130F40F0DD97FD3EC01F3649F128F4143621F137
S1130F50193639F125C0133771F01537E9F020C07F
S1130F608114910429F0F4016082C40101964C01BA
S1130F70FA94FF2059F0C60158D03C0197FD06C0F1
S1130F802BD0892B69F3B601C301C9D08114910414
S1130F90A1F0F401108211C0006203C0006101C01D
S1130FA00064202FA4016F2DC601D1DD811105C07D
S1130FB0F6018381807329F406C000FD18CF539491
S1130FC016CF552019F0852D90E002C08FEF9FEFCA
S1130FD0CDB7DEB7EFE03CC1911118C1803219F0F2
S1130FE089508550D0F70895FC010590061621F02C
S1130FF00020D9F7C00108953197CF010895FC016D
S11310000590615070400110D8F7809590958E0F2F
S11310109F1F0895FC016150704001900110D8F7A2
S1131020809590958E0F9F1F0895CF93DF93EC01C9
S11310302B8120FF33C026FF0AC02F7B2B838E8198
S11310409F8101969F838E838A8190E029C022FF2D
S11310500FC0E881F9818081082E000C990B00975C
S113106019F420622B831AC03196F983E8830EC0E9
S1131070EA85FB85099597FF09C02B81019611F03C
S113108080E201C080E1822B8B8308C02E813F81E6
S11310902F5F3F4F3F832E83992702C08FEF9FEF2F
S11310A0DF91CF9108950F931F93CF93DF93FB01AB
S11310B0238121FD03C08FEF9FEF2CC022FF16C0B8
S11310C046815781248135814217530744F4A08116
S11310D0B1819D012F5F3F4F318320838C93268103
S11310E037812F5F3F4F3783268314C08B01EC0178
S11310F0FB010084F185E02D0995892BE1F6D801E7
S113110016968D919C911797019617969C938E93A2
S11311101697CE01DF91CF911F910F910895FB0196
S1131120238120FF12C026FD10C08F3F3FEF93079D
S113113061F082832F7D20642383268137812150AF
S1131140310937832683992708958FEF9FEF0895F8
S1131150FA01AA27283051F1203181F1E8946F93E4
S11311606E7F6E5F7F4F8F4F9F4FAF4FB1E03ED08A
S1131170B4E03CD0670F781F891F9A1FA11D680F28
S1131180791F8A1F911DA11D6A0F711D811D911D5B
S1131190A11D20D009F468943F912AE0269F1124D0
S11311A03019305D3193DEF6CF010895462F477034
S11311B0405D4193B3E00FD0C9F7F6CF462F4F708F
S11311C0405D4A3318F0495D31FD4052419302D0ED
S11311D0A9F7EACFB4E0A695979587957795679593
S11311E0BA95C9F700976105710508959B01AC0193
S11311F00A2E06945795479537952795BA95C9F7BA
S1131200620F731F841F951FA01D089599278827B7
S113121008952F923F924F925F926F927F928F9296
S11312209F92AF92BF92CF92DF92EF92FF920F9371
S11312301F93CF93DF93CDB7DEB7CA1BDB0B0FB67B
S1131240F894DEBF0FBECDBF09942A883988488838
S11312505F846E847D848C849B84AA84B984C884CE
S1131260DF80EE80FD800C811B81AA81B981CE0FC5
S1131270D11D0FB6F894DEBF0FBECDBFED010895AA
S1071280F894FFCF0C
S11312840D0A312E53657454696D650D0A322E535B
S1131294686F7754696D650D0A332E457869740D4A
S11312A40A3E3E000D0A53657454696D65206173EA
S11312B4204848204D4D2053530D0A3E3E002564DA
S11312C42025642025640054696D652053657400E9
S11312D40D0A253032643A253032643A25303264BA
S10F12E40D0A0045786974696E6700000B
S9030000FC
